:020000040800F2
:10000000706500200502000835030008A102000801
:100010003103000871020008FD0400080000000020
:100020000000000000000000000000004501000882
:100030007502000800000000A101000899030008F3
:100040001F0200081F0200081F0200081F0200080C
:100050001F0200081F0200081F0200081F020008FC
:100060001F0200081F0200081F0200081F020008EC
:100070001F0200081F0200081F0200081F020008DC
:100080001F0200081F0200081F0200081F020008CC
:100090001F0200081F0200081F0200081F020008BC
:1000A0001F0200081F0200081F0200081F020008AC
:1000B0001F0200081F0200081F0200081F0200089C
:1000C0001F0200081F0200081F0200081F0200088C
:1000D0001F0200081F0200081F0200081F0200087C
:1000E0001F0200081F0200081F0200081F0200086C
:1000F0001F0200081F0200081F0200081F0200085C
:100100001F0200081F0200081F0200081F0200084B
:100110001F0200081F0200081F0200081F0200083B
:100120001F0200081F0200081F0200081F0200082B
:10013000DFF80CD000F08AF80048004753060008AA
:10014000706500202C4B19680868B0E8F04F80F308
:100150000988BFF36F8F4FF0000080F3118870475C
:100160000000000008480068006880F308884FF02D
:10017000000080F3148862B661B6BFF34F8FBFF3FF
:100180006F8F00DF00BF00BF08ED00E0DFF80C005C
:10019000016841F470010160704700BF88ED00E024
:1001A000EFF30980BFF36F8F134B1A681EF0100F27
:1001B00008BF20ED108A20E9F04F106009B44FF01D
:1001C000BF0080F31188BFF34F8FBFF36F8F00F034
:1001D00037FF4FF0000080F3118809BC19680868E8
:1001E000B0E8F04F1EF0100F08BFB0EC108A80F39B
:1001F0000988BFF36F8F704744000020EFF305803C
:10020000704700000648804706480047FEE7FEE7C3
:10021000FEE7FEE7FEE7FEE7FEE7FEE7FEE7FEE7B6
:10022000A103000831010008D2B201E000F8012B5F
:10023000491EFBD270470022F6E710B513460A4666
:1002400004461946FFF7F0FF204610BD064C074D47
:1002500006E0E06840F0010394E807009847103496
:10026000AC42F6D3FFF768FF701400089014000842
:1002700000BFFEE77047000006E004A000F040F970
:100280004FF4FA7000F084FEF7E7000048656C6CEC
:100290006F204672656552544F530D0A00000000EE
:1002A00000BFFEE714E0002000F000F94FF4FA7000
:1002B00000F06EFE012000F0F9F84FF4FA7000F043
:1002C00067FE022000F0F2F84FF4FA7000F060FED2
:1002D000E9E7000010B5002424E004EB4401134AD0
:1002E00032F8210000F008FD04EB44010F4A02EB54
:1002F00081018B6804EB440102EB81010222486812
:10030000102100F040F904EB4402084B03EB820299
:10031000916804EB440203EB8202506800F02CF970
:10032000601CC4B2032CD8D310BD0000080000200C
:1003300000BFFEE7704700001CB500F0CDFD0C4883
:10034000012100233222CDE900100AA10C4800F05F
:10035000E5FE0C48022100230A02CDE900100AA1A3
:100360000C4800F0DBFE00F0C9FD00F02BFE1CBDC8
:10037000000000204C45445F7461736B0000000076
:10038000A50200080400002044656275675F74617F
:10039000736B00007902000810B500F0A5FE10BDD7
:1003A00008B52648006840F47000244908602448D5
:1003B000006840F001002249086000BF2048006842
:1003C00000F002000028F9D000BF1D48406840F04E
:1003D00080001B4948600020009002E00098401C0B
:1003E000009000985028F9D31548406840F09000DC
:1003F000134948600020009002E00098401C0090E3
:1004000000985028F9D300BF0D48406820F0030041
:100410000B494860084600680A49084008490860D6
:100420004FF41F0088600846006820F480200860B0
:1004300000204860C86200F0F9FC08BD88ED00E0CB
:1004400000100240FFFFF6FE70B5012000F0A8FB8F
:100450004FF47A71B0FBF1F4601EB0F1807F01D3EC
:1004600001201BE0601E4FF0E021486148170F217A
:10047000002807DA0A07150E0A4A00F00F031B1FAF
:10048000D55403E00A07130E074A135400BF002097
:100490004FF0E021886107200861002008B100BF0B
:1004A000FEE770BD18ED00E000E400E070B5044622
:1004B000032C00D370BD04EB44020F4B03EB82020C
:1004C000916804EB440203EB8202506800F0B9F833
:1004D0000546C5F10100C5B204EB4402064B03EB2F
:1004E0008202916804EB440203EB820250682A46C0
:1004F00000F044F800BFDDE70800002000BFFEE781
:10050000014A024900F013B851050008A400002078
:1005100002E008C8121F08C1002AFAD170477047CC
:10052000002001E001C1121F002AFBD170472DE914
:10053000F04116460F460446002503E03946B04711
:10054000641C6D1C20780028F8D12846BDE8F08195
:1005500070B504460D46E1B2064A106800F06AFC28
:1005600000BF04490868072100F068FC0028F8D0A3
:10057000204670BD2C000020416170470AB1016126
:1005800000E041617047F0B50446164600250022A0
:1005900001F00F0501F0100747B1042E05D145F019
:1005A0000305E76B1F43E76300E0354300201EE0CF
:1005B000012787401F40C7B122684FEA800C0F27F0
:1005C00007FA0CF7BA43870005FA07F73A432829D8
:1005D00004D1012787401F40676105E0482903D106
:1005E000012787401F4027612260471CB8B20828B6
:1005F000DED3082022E0012787401F40E7B1626870
:10060000A0F108074FEA870C0F2707FA0CF7BA4347
:10061000A0F10807BF0005FA07F73A43282904D1DB
:10062000012787401F40676105E0482903D1012762
:1006300087401F4027616260471CB8B21028DAD398
:10064000F0BD02469068084008B1012070470020C4
:10065000FCE710B5FFF7F8FEFFF73CFEFFF76CFE76
:10066000002010BD2DE9F04105460E4626480768DA
:1006700026480068001D00F0F0FB50B923480068D0
:1006800090F82C10012088402149096881432048B6
:100690000160681CD8B9D6B11E4948681B49096871
:1006A00088601A4982680968CA6018490968091D82
:1006B0008268516015490968091D8160154A13490E
:1006C00009684A6111460968491C11601AE07C19E1
:1006D0000E4800684460BC4207D20C480168091DFE
:1006E0000D48006800F0DDFB0CE008480168091DBA
:1006F0000A48006800F0D5FB09480068844201D22E
:1007000007480460BDE8F081580000204400002044
:100710005C0000205C0100204C000020480000200C
:100720007400002010B5044600F0D6FB2F48006886
:10073000401C2E4908602E48006840B92C480460CF
:100740000846006801280DD100F016F90AE0294892
:10075000006838B926480068C06AE16A884201D852
:100760002348046024480068401C2349086094F82A
:100770002C10012088402149096808431F4908605E
:10078000E16A01EB81011E4A02EB81014868A06029
:100790008268E260211D826851608160E16A01EB3C
:1007A0008101174A02EB81026261E16A01EB81017A
:1007B000134A52F82110491CE26A02EB8202104BE4
:1007C00043F8221000F09AFB0A48006868B1084814
:1007D0000068C06AE16A884207D24FF08050094938
:1007E0000860BFF34F8FBFF36F8F10BD5400002020
:1007F0004400002060000020700000205C00002009
:10080000A800002004ED00E010B516E000F064FB45
:100810000C48C068C468201D00F01FFB0A4800682F
:10082000401E0949086009480068401E07490860E1
:1008300000F064FB204600F00BF804480068002834
:10084000E4D110BD480100205400002050000020D9
:1008500010B50446206B00F061FB204600F05EFB03
:1008600010BD000030B54FF48843154800F0070470
:100870002CB1C01D20F00700114C041B1B1B0246AD
:10088000104C226000240F4D6C60D018083820F006
:1008900007000D4C206000240B4D2D686C600A4D44
:1008A0002D682C601146441A4C60074C24680C607B
:1008B000064D4C682C60064D4C682C6030BD000025
:1008C00070010020840000208C0000209400002093
:1008D0009000002000BFFFF797FF0648006801283E
:1008E000F9D94FF0805004490860BFF34F8FBFF330
:1008F0006F8FF0E7A800002004ED00E02DE9FF5F16
:1009000080460E469146DDE90E7A109CA9F1010061
:10091000216B01EB800B2BF0070B7EB1002507E06C
:10092000715D04F134004155705D00B902E06D1C49
:10093000102DF5D300BF002143200155052F00D312
:100940000427E762201D00F0A9FA04F1180000F066
:10095000A5FA2461C7F10500A061646241465846CA
:10096000039A00F007F92060BAF1000F01D0CAF82D
:100970000040BDE8FF9F000010B5002407E004EB35
:1009800084010F4A02EB810000F07BFA641C052C05
:10099000F5D30C4800F075FA0B4800F072FA0B48DA
:1009A00000F06FFA0A4800F06CFA0A4800F069FAA1
:1009B00004480949086004480849086010BD00005F
:1009C000A80000200C01002020010020340100209C
:1009D000480100205C010020480000204C0000205D
:1009E00010B50146164800E0006803688B42FBD34F
:1009F0000246436813448B4204D143684C68234445
:100A0000436001460A464B6813440468A34211D16F
:100A10000C4C03682468A34208D04B6804686468DF
:100A200023444B6003681B680B6005E0054B1B68A3
:100A30000B6001E003680B60884200D0016010BDCC
:100A4000840000208C00002009480068006808B974
:100A5000012000E0002020B14FF0FF300549086080
:100A600005E003480068C0680068024908607047F4
:100A7000480000207400002000BFBF2080F31188D0
:100A8000BFF34F8FBFF36F8F00BF00BFFEE70000C3
:100A90002DE9F04705464FF0000900F0C9FA30484B
:100AA000006808B9FFF7DEFE75B105F00700C0F178
:100AB0001008C8F1FF30A84201D2012000E0002058
:100AC00008B9454400E00025012000EBE57000284E
:100AD00041D0002D3FD02348006885423BD8224EAC
:100AE0003046046801E0264624686068A84202D2C5
:100AF00020680028F7D11A48006884422BD030685B
:100B000000F10809206830606068401B102807D990
:100B100067196068401B786065603846FFF760FFC2
:100B2000104960680968081A0E490860084600689C
:100B30000E490968884203D20A4800680B490860D8
:100B4000606840F000406060002020600848006855
:100B5000401C0749086000F0DDFB4846BDE8F0870F
:100B60008C000020900000208400002094000020D1
:100B700098000020001F4FF080730360001F21F0D9
:100B800001030360001F054B036014380260001F5F
:100B90006FF002030360203870470000790A0008F4
:100BA0002DE9F04F8CB0074600200A904AA090E84B
:100BB000004CC068CDE905BECDF810A007900FF23B
:100BC0001C1ADAE9000ACDE9020A0FF2101ADAE972
:100BD000000ACDE9000A44484068C0F381000B9048
:100BE0000B9820B1012804D002283FD103E03F4AEE
:100BF0003EE03E4A3CE03C48406800F4803CBCF5A6
:100C0000803F12D13848C06A00F08048B8F1000F28
:100C100001D1364B00E0364B3348406800F40039D0
:100C2000B9F5003F02D15B0800E0324B2E48406826
:100C3000C0F383412C48406800F0006008B141F0E7
:100C400010012948406800F0804008B141F02001BF
:100C50000F2901D2891C06E00F2903D33E2901D8B0
:100C6000491C00E03F2103FB01F201E01F4A00BFE5
:100C700000BF1D484068C0F3031504A8465D22FA72
:100C800006F419484068C0F3022502A8465D24FA1C
:100C900006F0099014484068C0F3C2251DF80560AD
:100CA00024FA06F0089037B1012F06D0022F06D0A3
:100CB000032F0AD106E00A9208E00A9406E0099898
:100CC0000A9003E008980A9000E000BF00BF0A986D
:100CD0000CB0BDE8F08F0000000000000000000034
:100CE00001020304060708090010024000127A00FE
:100CF000006CDC0200093D00064A02EB9011096815
:100D000000F01F0301229A401143024B03EB9012A3
:100D10001160704700100240002000213F4A126815
:100D200042F480323D4B1A6000BF401C3B4A1268BF
:100D300002F4003119B94FF6FF729042F5D1374AEB
:100D4000126802F400320AB900BFFEE7334AD269E2
:100D500042F08052314BDA61314A126842F440422B
:100D60002F4B1A602D4A52682C4B5A601A46526813
:100D70005A601A46526842F480625A601A465268B3
:100D800022F440325A601A46526842F440325A60A5
:100D90001A465268234B1A40204B5A601A46526832
:100DA000214B1A431D4B5A601A46126842F080725A
:100DB0001A6000BF194A126802F00072002AF9D0C6
:100DC000174A126842F48032154B1A6000BF144A69
:100DD000526802F48032002AF9D0114A126842F4B3
:100DE00000320F4B1A6000BF0D4A526802F4003205
:100DF000002AF9D0094A526822F00302074B5A60D0
:100E00001A46526842F002025A6000BF034A526812
:100E100002F00802002AF9D07047000000100240DA
:100E200000700040FFFFC3B70000340810B5FFF7A3
:100E300073FF10BDC1F308024260704710B502464F
:100E400002EB9110006801F01F040123A340184039
:100E500008B1012010BD0020FCE701460A69D1E974
:100E600001309860D1E9010358605068884201D18F
:100E700088685060002008611068401E106010688B
:100E8000704700F1080141604FF0FF31816000F1CF
:100E90000801C1600161002101607047002101610A
:100EA000704710B502460B685C1C0CB9106907E06E
:100EB00002F1080000E04068446824689C42FAD9C6
:100EC00044684C604C68A160886041600A611468A5
:100ED000641C146010BD000000BFBF2080F31188A7
:100EE000BFF34F8FBFF36F8F00BF03480068401CF4
:100EF0000149086070470000A00000200648006813
:100F0000401E054908600846006820B9002080F3AB
:100F1000118800BF00BF7047A000002070B50646D2
:100F20003546E6B1083D2C466068C00FB8B1206870
:100F3000A8B9606820F00040606000F079F80849C6
:100F4000606809680844064908602046FFF748FDC4
:100F500004480068401C0349086000F0DBF970BDDC
:100F6000900000209C00002000204FF0E02108614C
:100F70008861064800684FF47A71B0FBF1F0401EBA
:100F80004FF0E021486107200861704740000020D1
:100F900070B50446002544B100F04AF8002120460F
:100FA000FFF760FB00F0B6F905463DB94FF0805001
:100FB00003490860BFF34F8FBFF36F8F70BD000010
:100FC00004ED00E01CB5124800210B468022CDE95B
:100FD000001010A1114800F0A1F80446012C14D112
:100FE00000BFBF2080F31188BFF34F8FBFF36F8F17
:100FF00000BF4FF0FF300A4908600120094908602E
:1010000000200949086000F04BF8084800681CBD42
:101010007800002049444C4500000000D508000835
:101020007400002060000020580000207C00002098
:1010300002480068401C0149086070478000002099
:101040001248006818B10120114908601DE0002015
:101050000F4908600F480068B0FA80F0C0F11F0126
:1010600001EB81020C4B03EB820042685268426044
:1010700000F108024368934202D14268526842601C
:101080004268D268054B1A6000BF7047800000209C
:10109000680000205C000020A80000204400002020
:1010A00010B50E48006840F47F000C4908600846FF
:1010B000006840F07F400860FFF756FF00200849B5
:1010C0000860FFF763F80748006840F040400549B2
:1010D0000860FFF747F8002010BD000020ED00E099
:1010E000A000002034EF00E010B500BFBF2080F367
:1010F0001188BFF34F8FBFF36F8F00BF00F042F82E
:1011000018B14FF080500449086000BF002080F300
:10111000118800BF10BD000004ED00E02DE9FF4F75
:1011200085B0804689461746DDE912ABB800FFF767
:10113000AFFC064676B14C20FFF7AAFC04462CB162
:101140004C212046FFF777F8266304E03046FFF78E
:10115000E5FE00E000247CB10020CDE900ABCDE944
:1011600002403A4649464046089BFFF7C7FB2046E7
:10117000FFF7D8FA012501E04FF0FF35284609B006
:10118000BDE8F08F2DE9F04100275748006800289E
:101190007ED156480068451C544805608DB95448B6
:1011A000D0F8008053480068514908605148C0F8A1
:1011B000008051480068401C4F490860FFF744FC1C
:1011C00000BF4E480068854276D300BF484800689B
:1011D000006808B9012000E0002020B14FF0FF3086
:1011E0004649086067E042480068C068C4686668AD
:1011F000B54202D2414806605DE06069D4E902125E
:101200008A60D4E902214A60211D42688A4201D1E4
:10121000E1684160002262610168491E0160A06AC4
:1012200098B1A06AD4E907128A60D4E907214A601C
:1012300004F1180142688A4201D1216A416000220A
:10124000A2620168491E016000BF94F82C100120C1
:1012500088402B490968084329490860E16A01EB85
:101260008101284A02EB81014868A0608268E2603F
:10127000211D826851608160E16A01EB8101214A90
:1012800002EB81026261E16A01EB81011D4A00E02B
:1012900022E052F82110491CE26A02EB8202194B4B
:1012A00043F822101849E06A0968C96A88428DD952
:1012B00001278BE700E000BF13480068C06A00EB1D
:1012C0008000104951F82000012800D901270F485B
:1012D000006800B1012704E00D480068401C0C497B
:1012E00008603846BDE8F0818000002058000020EA
:1012F000480000204C0000206C00002074000020FA
:101300005C000020A80000204400002068000020AD
:101310006400002070B500240026FFF7DDFD4B4877
:101320000068401E494908600846006800287DD1D1
:1013300047480068002879D05BE04648C068C46828
:10134000A06AD4E907128A60D4E907214A6004F14F
:10135000180142688A4201D1216A41600022A262DA
:101360000168491E01606069D4E902128A60D4E90B
:1013700002214A60211D42688A4201D1E168416030
:10138000002262610168491E016094F82C1001205E
:1013900088403149096808432F490860E16A01EB38
:1013A00081012E4A02EB81014868A0608268E260F8
:1013B000211D826851608160E16A01EB8101274A49
:1013C00002EB81026261E16A01EB8101234A52F87A
:1013D0002110491CE26A02EB8202204B43F82210E2
:1013E0001F49E06A0968C96A884202D301201D4981
:1013F00008601848006808B9012000E000200028B3
:101400009BD00CB1FFF720FB1748056865B100BF02
:10141000FFF7B8FE10B10120124908606D1E002DC3
:10142000F6D10020104908600E4800E009E000688D
:1014300038B1012630070D490860BFF34F8FBFF365
:101440006F8FFFF75BFD304670BD0000800000200D
:1014500054000020340100205C000020A80000207F
:1014600044000020680000206400002004ED00E03B
:101470009014000800000020A800000010050008DB
:1014800038150008A8000020C864000020050008E6
:1014900000000000000000000206000000080140FB
:1014A0000001000006060000001801404000000096
:1014B00007060000001C0140400000000038014009
:1014C0000E060206000801400002000000040000B1
:1014D000000E2707000000000000000000000000D0
:1014E00000000000000000000000000000000000FC
:1014F00000000000000000000000000000000000EC
:1015000000000000000000000000000004000000D7
:1015100000000000000000000000000000000000CB
:1015200000000000000000000000000000000000BB
:08153000AAAAAAAA000000000B
:0400000508000131BD
:00000001FF
